S018000070726F6A6563745F646F6D6F746963612E7372656366
S113000014C089C192C12AC029C028C028C00BC30A
S1130010DBC224C023C030C221C020C01FC01EC008
S11300201DC01CC01BC01AC019C011241FBECFEDB7
S1130030CDBF10E0A0E6B0E0E4E8F6E002C0059031
S11300400D92A038B107D9F720E0A0E8B0E001C0D4
S11300501D92AA3AB207E1F7BED112C3D1CF1F92C3
S11300600F920FB60F921124CF92DF92EF92FF926C
S11300700F931F932F933F934F935F936F937F93AC
S11300808F939F93AF93BF93CF93DF93EF93FF939C
S1130090C0E0D0E040E0DD24D3946894CC24C5F8DB
S11300A00F2EF4E8EF2EF0E0FF2EF02D8C2F9E01A2
S11300B0FE01EE0FFF1FEC0FFD1FEE0FFF1FEC57AD
S11300C0FF4F9481992309F466C0FE01EE0FFF1FD0
S11300D0EC0FFD1FEE0FFF1FEC57FF4F9481915063
S11300E09483911155C0F901EE0FFF1FE20FF31F26
S11300F0EE0FFF1FEC57FF4FA081B1816C919581EA
S113010070E0977002C0759567959A95E2F76170F3
S11301109581462F50E095FB002700F910E0401729
S11301205107C1F1F901EE0FFF1FE20FF31FEE0FAC
S1130130FF1FEC57FF4F95819C259583958199234B
S1130140C4F0C901880F991FFC01E20FF31FEE0FE1
S1130150FF1FEC57FF4F45814064FC01E20FF31F82
S1130160EE0FFF1FEC57FF4F4583F701D4A24D2D2F
S113017012C0F901EE0FFF1FE20FF31FEE0FFF1F76
S1130180EC57FF4F0280F381E02D09954D2D03C0FC
S11301904D2D01C04D2D2196C630D10509F086CFD5
S11301A0411101C013BE82EB82BFFF91EF91DF9139
S11301B0CF91BF91AF919F918F917F916F915F91FB
S11301C04F913F912F911F910F91FF90EF90DF90EE
S11301D0CF900F900FBE0F901F901895CF93DF9381
S11301E08091A800882311F1C0E0D0E0FE01EE0F59
S11301F0FF1FEC0FFD1FEE0FFF1FEC57FF4F858114
S113020086FF0EC0DF0185818F7B85830280F381A9
S1130210E02D15966C9165FB662760F98C2F099586
S11302202196C630D10511F71092A800DF91CF9125
S113023008950F931F9350E0FA01EE0FFF1FE40F90
S1130240F51FEE0FFF1FEC57FF4F9183808313833D
S113025002831482211120E8FC01808190E0062EA3
S113026002C0959587950A94E2F780FD02C080E06C
S113027001C080E2622B682BFA01EE0FFF1FE40F2E
S1130280F51FEE0FFF1FEC57FF4F65831F910F9172
S1130290089561110EC0282F30E0280F311D280F5A
S11302A0311D220F331FF901EC57FF4F83E0848384
S11302B00CC0282F30E0280F311D280F311D220FCC
S11302C0331FF901EC57FF4F648383B7811102C0D8
S11302D084E083BF089510BE13BE82EB82BF82E028
S11302E089BF0895E82FF0E03A97CF01880F991F4E
S11302F0880F991FE81BF90B22AD81E090E002C042
S1130300880F991F6A95E2F7922F982B92AF93ADBD
S1130310892783AF08951F920F920FB60F9211246D
S11303200F900FBE0F901F9018951F920F920FB64B
S11303300F9211240F900FBE0F901F90189522D189
S11303400895EF920F931F93CF93DF9300D0CDB70F
S1130350DD2719826130710519F491E89A8304C08C
S1130360672B11F490E89A83E82E02E010E09E01D6
S11303702F5F3F4F41E062E08CE0E1DFCE5FCDBF15
S1130380DF91CF911F910F91EF900895EF920F930A
S11303901F93CF93DF9300D0CDB7DD27198261304F
S11303A0710519F49BE89A8304C0672B11F493E850
S11303B09A83E82E02E010E09E012F5F3F4F41E058
S11303C062E08CE0BCDFCE5FCDBFDF91CF911F91A7
S11303D00F91EF90089599D080E090E008950F93E5
S11303E01F93CF93611144C0C82F811117C060E0DF
S11303F070E08AE077DF809191FF082F017010E0B0
S113040080FF05C061E070E08AE09BDF15C0012B2E
S113041099F460E070E08AE094DF0EC0813029F442
S113042060E070E08CE0B2DF16C0823029F460E056
S113043070E08DE0ABDF16C0C33069F463E070E0B8
S11304408DE050DF80918BFF83FD12C060E070E08F
S11304508AE077DF0DC0C43029F461E070E08CE0FD
S113046095DF06C0C53021F461E070E08DE08EDFD9
S1130470CF911F910F9108951F920F920FB60F9273
S113048011242F933F934F935F936F937F938F9395
S11304909F93AF93BF93CF93EF93FF93C6B3809192
S11304A0A900C82786B38093A900C0FF03C062E0F7
S11304B080E0EFDEC1FF03C063E081E0EADEC2FF5B
S11304C003C064E082E0E5DEC3FF03C065E083E0CF
S11304D0E0DEC4FF03C064E184E0DBDEC5FF03C0EB
S11304E062E385E0D6DEFF91EF91CF91BF91AF91AA
S11304F09F918F917F916F915F914F913F912F9138
S11305000F900FBE0F901F90189517BA18BACFEF1F
S1130510C1BBC2BBCABBCBBBDEDE86B38093A90022
S11305200FEE11E021E040E060E086E390E081DE40
S113053021E041E061E086E390E07BDE21E042E0FF
S113054062E086E390E075DE21E043E063E086E369
S113055090E06FDE20E044E064E086E390E069DE52
S113056020E045E065E086E390E063DE80E28BBF57
S1130570C0BD789433DE81EE94E00197F1F700C0BA
S11305800000F8CF90918300809182009817C9F001
S11305902091820030E02F5F3F4F2F70307833235B
S11305A034F421503109206F3F6F2F5F3F4FE091AA
S11305B08200F0E0E059FF4F80812093820090E0B8
S11305C0089580E091E008951F920F920FB60F9264
S11305D011248F939F93EF93FF93909181008091C7
S11305E080009817B1F08091800090E001968F70A0
S11305F09078992324F40197806F9F6F0196E0917E
S11306008000F0E0E05AFF4F90819CB98093800015
S113061001C05598FF91EF919F918F910F900FBE5C
S11306200F901F9018951F920F920FB60F921124DE
S11306302F938F939F93EF93FF938091830090E088
S113064001968F709078992324F40197806F9F6F9F
S1130650019620918200281749F0E0918300F0E090
S11306609CB1E059FF4F908380938300FF91EF91F9
S11306709F918F912F910F900FBE0F901F901895FF
S1070680F894FFCF18
S113068478787878787878787878787878787878E2
S113069478787878787878787878787878787878D2
S9030000FC
