:1000000014C053C05CC02AC029C028C027C015C175
:10001000E5C024C023C023C021C020C01FC01EC013
:100020001DC01CC01BC01AC019C011241FBECFEDBB
:10003000CDBF10E0A0E6B0E0E8E9F2E002C0059034
:100040000D92A638B107D9F720E0A6E8B0E001C0CC
:100050001D92AB38B207E1F73CD01CC1D1CF1F9243
:100060000F920FB60F9211248F939F93CF93DF932C
:100070001F92CDB7DD2796B38091860089278983AB
:1000800086B380938600898189818981898189816C
:100090008981898189810F90DF91CF919F918F9183
:1000A0000F900FBE0F901F9018951F920F920FB6D2
:1000B0000F9211240F900FBE0F901F9018951F9252
:1000C0000F920FB60F9211240F900FBE0F901F903A
:1000D00018958D9A85E0959AE3EDF0E33197F1F765
:1000E00000C000009598E3EDF0E33197F1F700C010
:1000F0000000815081F71DD0789423D08115914064
:1001000019F481E440D003C080E890E059D0959A7A
:100110008FE493EC0197F1F700C0000095989FEFF2
:10012000E0E7F2E09150E040F040E1F700C000006D
:10013000E4CF12B885E089B988E98AB98EE083B93D
:10014000089590918A00809189009817C9F02091B4
:10015000890030E02F5F3F4F2F703078332334F425
:1001600021503109206F3F6F2F5F3F4FE091890091
:10017000F0E0E059FF4F80812093890090E00895DE
:1001800080E091E008952091880030E02F5F3F4F9C
:100190002F703078332334F421503109206F3F6FB2
:1001A0002F5F3F4F909187002917E1F3E09188007E
:1001B000F0E0E05AFF4F808320938800559A08951D
:1001C000CF93DF93EC018881882329F02196DBDF30
:1001D00089918111FCCFDF91CF9108951F920F92E9
:1001E0000FB60F9211248F939F93EF93FF939091EB
:1001F0008800809187009817B1F08091870090E087
:1002000001968F709078992324F40197806F9F6FE7
:100210000196E0918700F0E0E05AFF4F90819CB991
:100220008093870001C05598FF91EF919F918F9126
:100230000F900FBE0F901F9018951F920F920FB640
:100240000F9211242F938F939F93EF93FF9380919D
:100250008A0090E001968F709078992324F401979A
:10026000806F9F6F019620918900281749F0E091D7
:100270008A00F0E09CB1E059FF4F908380938A00A0
:10028000FF91EF919F918F912F910F900FBE0F9043
:080290001F901895F894FFCFB0
:1002980078787878787878787878787878787878D6
:1002A80078787878787878787878787878787878C6
:0602B80068616C6C6F0030
:00000001FF
