:1000000014C0B2C0BBC01FC01EC01DC01CC01BC0DE
:100010001AC019C018C06EC016C0BFC014C013C02B
:1000200012C011C010C08CC095C011241FBECFEDEE
:10003000CDBF20E0A0E6B0E001C01D92A136B2071E
:10004000E1F7A6D0DBC0DCCFE82FF0E03A97CF0194
:10005000880F991F880F991FE81BF90B22AD81E0CB
:1000600090E002C0880F991F6A95E2F7982F90954B
:10007000922392AF93AD982B93AF92AD982B92AF02
:1000800093AD892B83AF0895E82FF0E03A97CF0125
:10009000880F991F880F991FE81BF90B22AD81E08B
:1000A00090E002C0880F991F6A95E2F7982F90950B
:1000B000292322AF23AD292323AF22AD822B82AF88
:1000C00083AD982393AF089590E00A979C01220F87
:1000D000331F220F331FFC01E21BF30B21AD81E024
:1000E00090E002C0880F991F6A95E2F730E0822302
:1000F000932308951F920F920FB60F9211248F939E
:100100009F93CF93DF931F92CDB7DD2796B3809156
:1001100060008927898386B3809360008981898103
:100120008981898189818981898189810F90DF9184
:10013000CF919F918F910F900FBE0F901F901895A8
:100140001F920F920FB60F9211240F900FBE0F90B7
:100150001F9018951F920F920FB60F9211240F90B7
:100160000FBE0F901F9018951F920F920FB60F920F
:1001700011240F900FBE0F901F9018951F920F9291
:100180000FB60F9211240F900FBE0F901F9018956D
:1001900067E070E08BE058DFFFCF1F920F920FB641
:1001A0000F9211242F933F934F935F936F937F93FD
:1001B0008F939F93AF93BF93EF93FF9367E070E0AC
:1001C0008BE082DF892B29F067E070E08BE05CDF59
:1001D00004C067E070E08BE037DFFF91EF91BF91E3
:1001E000AF919F918F917F916F915F914F913F91CF
:1001F0002F910F900FBE0F901F901895F894FFCF7E
:00000001FF
