S018000070726F6A6563745F646F6D6F746963612E7372656366
S113000014C089C192C12AC029C028C028C098C37D
S113001068C324C023C0A0C221C020C01FC01EC00A
S11300201DC01CC01BC01AC019C011241FBECFEDB7
S1130030CDBF10E0A0E6B0E0ECEBF7E002C0059025
S11300400D92AA39B107D9F720E0AAE9B0E001C0BE
S11300501D92A83CB207E1F72ED2AEC3D1CF1F92B6
S11300600F920FB60F921124CF92DF92EF92FF926C
S11300700F931F932F933F934F935F936F937F93AC
S11300808F939F93AF93BF93CF93DF93EF93FF939C
S1130090C0E0D0E040E0DD24D3946894CC24C5F8DB
S11300A00F2EF2EAEF2EF0E0FF2EF02D8C2F9E01A2
S11300B0FE01EE0FFF1FEC0FFD1FEE0FFF1FEE55AD
S11300C0FF4F9481992309F466C0FE01EE0FFF1FD0
S11300D0EC0FFD1FEE0FFF1FEE55FF4F9481915063
S11300E09483911155C0F901EE0FFF1FE20FF31F26
S11300F0EE0FFF1FEE55FF4FA081B1816C919581EA
S113010070E0977002C0759567959A95E2F76170F3
S11301109581462F50E095FB002700F910E0401729
S11301205107C1F1F901EE0FFF1FE20FF31FEE0FAC
S1130130FF1FEE55FF4F95819C259583958199234B
S1130140C4F0C901880F991FFC01E20FF31FEE0FE1
S1130150FF1FEE55FF4F45814064FC01E20FF31F82
S1130160EE0FFF1FEE55FF4F4583F701D4A24D2D2F
S113017012C0F901EE0FFF1FE20FF31FEE0FFF1F76
S1130180EE55FF4F0280F381E02D09954D2D03C0FC
S11301904D2D01C04D2D2196C630D10509F086CFD5
S11301A0411101C013BE82EB82BFFF91EF91DF9139
S11301B0CF91BF91AF919F918F917F916F915F91FB
S11301C04F913F912F911F910F91FF90EF90DF90EE
S11301D0CF900F900FBE0F901F901895CF93DF9381
S11301E08091C600882311F1C0E0D0E0FE01EE0F3B
S11301F0FF1FEC0FFD1FEE0FFF1FEE55FF4F858114
S113020086FF0EC0DF0185818F7B85830280F381A9
S1130210E02D15966C9165FB662760F98C2F099586
S11302202196C630D10511F71092C600DF91CF9107
S113023008950F931F9350E0FA01EE0FFF1FE40F90
S1130240F51FEE0FFF1FEE55FF4F9183808313833D
S113025002831482211120E8FC01808190E0062EA3
S113026002C0959587950A94E2F780FD02C080E06C
S113027001C080E2622B682BFA01EE0FFF1FE40F2E
S1130280F51FEE0FFF1FEE55FF4F65831F910F9172
S1130290089561110EC0282F30E0280F311D280F5A
S11302A0311D220F331FF901EE55FF4F83E0848384
S11302B00CC0282F30E0280F311D280F311D220FCC
S11302C0331FF901EE55FF4F648383B7811102C0D8
S11302D084E083BF089510BE13BE82EB82BF82E028
S11302E089BF0895E82FF0E03A97CF01880F991F4E
S11302F0880F991FE81BF90B22AD81E090E002C042
S1130300880F991F6A95E2F7922F982B92AF93ADBD
S1130310892783AF08951F920F920FB60F9211246D
S11303200F900FBE0F901F9018951F920F920FB64B
S11303300F9211240F900FBE0F901F90189592D119
S11303400895019719F480E3AFD108955F9B03C02A
S113035083E0AAD1089583E3A7D1089583D15A9B5A
S113036006C021E030E030939D0020939C00209152
S11303709A0030919B00F901EE59FF4F808325309C
S11303803105B1F58F702091600030916100A901B1
S1130390480F511D509361004093600052E25A95FA
S11303A0F1F700C082E28A95F1F700C080919A00CB
S11303B090919B00019690939B0080939A002091CA
S11303C06000309161008217930751F58BE090E053
S11303D022E22A95F1F700C00197D1F780919C00A1
S11303E090919D00AEDF10929B0010929A000895A8
S11303F042E24A95F1F700C052E25A95F1F700C083
S113040080919A0090919B00019690939B00809319
S11304109A00209160003091610082179307B1F235
S11304200895EF920F931F93CF93DF9300D0CDB72E
S1130430DD2719826130710519F491E89A8304C0AB
S1130440672B11F490E89A83E82E02E010E09E01F5
S11304502F5F3F4F41E062E08CE071DFCE5FCDBFA4
S1130460DF91CF911F910F91EF900895EF920F9329
S11304701F93CF93DF9300D0CDB7DD27198261306E
S1130480710519F49BE89A8304C0672B11F493E86F
S11304909A83E82E02E010E09E012F5F3F4F41E077
S11304A062E08CE04CDFCE5FCDBFDF91CF911F9136
S11304B00F91EF90089599D080E090E008950F9304
S11304C01F93CF93611144C0C82F811117C060E0FE
S11304D070E08AE007DF809191FF082F017010E03F
S11304E080FF05C061E070E08AE09BDF15C0012B4E
S11304F099F460E070E08AE094DF0EC0813029F462
S113050060E070E08CE0B2DF16C0823029F460E075
S113051070E08DE0ABDF16C0C33069F463E070E0D7
S11305208DE0E0DE80918BFF83FD12C060E070E01F
S11305308AE077DF0DC0C43029F461E070E08CE01C
S113054095DF06C0C53021F461E070E08DE08EDFF8
S1130550CF911F910F9108951F920F920FB60F9292
S113056011242F933F934F935F936F937F938F93B4
S11305709F93AF93BF93CF93EF93FF93C6B38091B1
S1130580C700C82786B38093C700C0FF03C062E0DA
S113059080E07FDEC1FF03C063E081E07ADEC2FF5A
S11305A003C064E082E075DEC3FF03C065E083E05E
S11305B070DEC4FF03C064E184E06BDEC5FF03C0EA
S11305C062E385E066DEFF91EF91CF91BF91AF9139
S11305D09F918F917F916F915F914F913F912F9157
S11305E00F900FBE0F901F90189517BA18BACFEF3F
S11305F0C1BBC2BBCABBCBBB6EDE86B38093C70094
S11306000FE512E021E040E060E086E390E011DED7
S113061021E041E061E086E390E00BDE21E042E08E
S113062062E086E390E005DE21E043E063E086E3F8
S113063090E0FFDD20E044E064E086E390E0F9DD53
S113064020E045E065E086E390E0F3DD80E28BBFE7
S1130650C0BD7894C3DD81EE94E00197F1F700C04A
S11306600000F8CF9091A1008091A0009817C9F0E4
S11306702091A00030E02F5F3F4F2F70307833235C
S113068034F421503109206F3F6F2F5F3F4FE091C9
S1130690A000F0E0E757FF4F80812093A00090E096
S11306A0089580E091E0089520919F0030E02F5F4D
S11306B03F4F2F703078332334F421503109206FA9
S11306C03F6F2F5F3F4F90919E002917E1F3E09118
S11306D09F00F0E0E758FF4F808320939F00559AD6
S11306E008951F920F920FB60F9211248F939F9328
S11306F0EF93FF9390919F0080919E009817B1F023
S113070080919E0090E001968F709078992324F454
S11307100197806F9F6F0196E0919E00F0E0E7588B
S1130720FF4F90819CB980939E0001C05598FF9122
S1130730EF919F918F910F900FBE0F901F9018957E
S11307401F920F920FB60F9211242F933F934F9342
S11307505F936F937F938F939F93AF93BF93EF9325
S1130760FF938091A10090E001968F709078992377
S113077024F40197806F9F6F01962091A0002817A1
S113078051F0E091A100F0E09CB1E757FF4F908356
S11307908093A100E3DDFF91EF91BF91AF919F9111
S11307A08F917F916F915F914F913F912F910F9016
S10F07B00FBE0F901F901895F894FFCF17
S11307BC0700787878787878787878787878787892
S11307CC7878787878787878787878787878787899
S11307DC7878787878787878787878787878787889
S10D07EC78787878787878787800C7
S9030000FC
