S018000070726F6A6563745F646F6D6F746963612E7372656366
S113000014C082C020C01FC01EC01DC01CC01BC0A5
S11300101AC019C018C017C016C085C014C013C0B8
S113002012C011C010C00FC065C011241FBECFED97
S1130030CDBF20E0A0E6B0E001C01D92A036B2071B
S1130040E1F76CD0A1C0DCCFE82FF0E03A97CF0104
S1130050880F991F880F991FE81BF90B22AD81E0C7
S113006090E002C0880F991F6A95E2F7982F909547
S1130070922392AF93AD982B93AF92AD982B92AFFE
S113008093AD892B83AF0895E82FF0E03A97CF0121
S1130090880F991F880F991FE81BF90B22AD81E087
S11300A090E002C0880F991F6A95E2F7982F909507
S11300B0292322AF23AD292323AF22AD822B82AF84
S11300C083AD982393AF089590E00A979C01220F83
S11300D0331F220F331FFC01E21BF30B21AD81E020
S11300E090E002C0880F991F6A95E2F730E08223FE
S11300F0932308951F920F920FB60F9211240F901D
S11301000FBE0F901F9018951F920F920FB60F926B
S113011011240F900FBE0F901F90189567E070E0A8
S11301208BE0B2DFFFCF1F920F920FB60F92112414
S11301302F933F934F935F936F937F938F939F93EB
S1130140AF93BF93EF93FF9367E070E08BE0BCDF66
S1130150892B29F067E070E08BE096DF04C067E04C
S113016070E08BE071DFFF91EF91BF91AF919F91B0
S11301708F917F916F915F914F913F912F910F904C
S10F01800FBE0F901F901895F894FFCF4D
S9030000FC
