:1000000014C019C018C017C016C015C014C013C042
:1000100012C011C010C00FC00EC00DC00CC00BC06C
:100020000AC009C008C007C006C011241FBECFED1A
:10003000CDBF22D026C0E4CFE82FF0E03A97CF0121
:10004000880F991F880F991FE81BF90B22AD81E0DB
:1000500090E002C0880F991F6A95E2F7982F90955B
:10006000292322AF23AD292323AF22AD822B82AFD8
:1000700083AD982393AF089560E070E08BE0DCDF00
:06008000FFCFF894FFCF52
:00000001FF
