S018000070726F6A6563745F646F6D6F746963612E7372656366
S113000014C073C07CC02AC029C028C027C0B5C092
S113001085C024C023C043C021C020C01FC01EC04F
S11300201DC01CC01BC01AC019C011241FBECFEDB7
S1130030CDBF10E0A0E6B0E0E8EDF1E002C005902D
S11300400D92A038B107D9F720E0A0E8B0E001C0D4
S11300501D92A538B207E1F75CD0BCC0D1CFE82F20
S1130060F0E03A97CF01880F991F880F991FE81B7A
S1130070F90B22AD81E090E002C0880F991F6A95C8
S1130080E2F7982F9095292322AF23AD292323AF9C
S113009022AD822B82AF83AD982393AF08951F9234
S11300A00F920FB60F9211248F939F93CF93DF93E8
S11300B01F92CDB7DD2796B380918000892789836D
S11300C086B380938000898189818981898189812E
S11300D08981898189810F90DF91CF919F918F913F
S11300E00F900FBE0F901F9018951F920F920FB68E
S11300F00F9211240F900FBE0F901F9018951F920E
S11301000F920FB60F9211240F900FBE0F901F90F5
S1130110189565E070E08BE0A2DFFFCF1F920F928D
S11301200FB60F9211248F939F93EF93FF939091A7
S11301308200809181009817B1F08091810090E055
S113014001968F709078992324F40197806F9F6FA4
S11301500196E0918100F0E0E05AFF4F90819CB954
S11301608093810001C05598FF91EF919F918F91E9
S11301700F900FBE0F901F9018951F920F920FB6FD
S11301800F9211242F938F939F93EF93FF9380915A
S1130190840090E001968F709078992324F401975D
S11301A0806F9F6F019620918300281749F0E0919A
S11301B08400F0E09CB1E059FF4F90838093840069
S11301C0FF91EF919F918F912F910F900FBE0F9000
S10B01D01F901895F894FFCF6D
S11301D87878787878787878787878787878787893
S11301E87878787878787878787878787878787883
S9030000FC
