S018000070726F6A6563745F646F6D6F746963612E7372656366
S113000014C053C05CC02AC029C028C027C0BAC0CD
S11300108AC024C023C023C021C020C01FC01EC06A
S11300201DC01CC01BC01AC019C011241FBECFEDB7
S1130030CDBF10E0A0E6B0E0E2EEF1E002C0059032
S11300400D92A038B107D9F720E0A0E8B0E001C0D4
S11300501D92A538B207E1F73CD0C1C0D1CF1F92A1
S11300600F920FB60F9211248F939F93CF93DF9328
S11300701F92CDB7DD2796B38091800089278983AD
S113008086B380938000898189818981898189816E
S11300908981898189810F90DF91CF919F918F917F
S11300A00F900FBE0F901F9018951F920F920FB6CE
S11300B00F9211240F900FBE0F901F9018951F924E
S11300C00F920FB60F9211240F900FBE0F901F9036
S11300D0189504D078948AEE09D0FDCF12B885E043
S11300E089B988E98AB986E283B9089520918200A2
S11300F030E02F5F3F4F2F703078332334F421509A
S11301003109206F3F6F2F5F3F4F90918100291776
S1130110E1F3E0918200F0E0E05AFF4F8083209306
S11301208200559A08951F920F920FB60F921124D0
S11301308F939F93EF93FF9390918200809181001E
S11301409817B1F08091810090E001968F709078BB
S1130150992324F40197806F9F6F0196E0918100A9
S1130160F0E0E05AFF4F90819CB98093810001C078
S11301705598FF91EF919F918F910F900FBE0F9023
S11301801F9018951F920F920FB60F9211242F9360
S11301908F939F93EF93FF938091840090E0019657
S11301A08F709078992324F40197806F9F6F019644
S11301B020918300281749F0E0918400F0E09CB17D
S11301C0E059FF4F908380938400FF91EF919F91BA
S11301D08F912F910F900FBE0F901F901895F89448
S10501E0FFCF4B
S11301E27878787878787878787878787878787889
S11301F27878787878787878787878787878787879
S9030000FC
