S018000070726F6A6563745F646F6D6F746963612E7372656366
S113000014C03AC043C02AC029C028C027C034C184
S113001004C124C023C022C021C020C01FC01EC0F0
S11300201DC01CC01BC01AC019C011241FBECFEDB7
S1130030CDBF10E0A0E6B0E0E4EFF2E002C005902E
S11300400D92AA39B107D9F720E0AAE9B0E001C0BE
S11300501D92A23AB207E1F793D04AC1D1CF85B736
S1130060816085BF85B7826085BF8BB780648BBF95
S11300708FB780688FBF08951F920F920FB60F92AB
S113008011240F900FBE0F901F9018951F920F927E
S11300900FB60F9211240F900FBE0F901F9018955A
S11300A0019719F480E39CD008955F9B03C083E01B
S11300B097D0089583E394D0089570D05A9B06C0D6
S11300C021E030E030939D0020939C0020919A0021
S11300D030919B00F901EE59FF4F808325303105A3
S11300E0B1F58F702091600030916100A901480F33
S11300F0511D509361004093600052E25A95F1F70C
S113010000C082E28A95F1F700C080919A00909134
S11301109B00019690939B0080939A00209160002D
S1130120309161008217930751F58BE090E022E251
S11301302A95F1F700C00197D1F780919C00909126
S11301409D00AEDF10929B0010929A00089542E247
S11301504A95F1F700C052E25A95F1F700C0809138
S11301609A0090919B00019690939B0080939A0033
S1130170209160003091610082179307B1F20895D5
S11301806EDF04D078948AEE2BD0FDCF12B885E0D0
S113019089B988E98AB986E283B908959091A10062
S11301A08091A0009817C9F02091A00030E02F5F43
S11301B03F4F2F703078332334F421503109206FAE
S11301C03F6F2F5F3F4FE091A000F0E0E757FF4FF4
S11301D080812093A00090E0089580E091E008954C
S11301E020919F0030E02F5F3F4F2F7030783323F2
S11301F034F421503109206F3F6F2F5F3F4F9091AE
S11302009E002917E1F3E0919F00F0E0E758FF4FCB
S1130210808320939F00559A08951F920F920FB6E2
S11302200F9211248F939F93EF93FF9390919F00CC
S113023080919E009817B1F080919E0090E0019605
S11302408F709078992324F40197806F9F6F0196A3
S1130250E0919E00F0E0E758FF4F90819CB98093B5
S11302609E0001C05598FF91EF919F918F910F903F
S11302700FBE0F901F9018951F920F920FB60F92FA
S113028011242F933F934F935F936F937F938F9397
S11302909F93AF93BF93EF93FF938091A10090E05E
S11302A001968F709078992324F40197806F9F6F43
S11302B001962091A000281751F0E091A100F0E0F0
S11302C09CB1E757FF4F90838093A100F6DEFF9126
S11302D0EF91BF91AF919F918F917F916F915F91BA
S11302E04F913F912F910F900FBE0F901F90189533
S10702F0F894FFCFAC
S11302F4070078787878787878787878787878785F
S11303047878787878787878787878787878787865
S11303147878787878787878787878787878787855
S10D03247878787878787878780093
S9030000FC
