:1000000014C02CC02BC02AC029C028C027C026C0BD
:1000100025C024C023C022C021C020C01FC01EC0D4
:100020001DC01CC01BC01AC019C011241FBECFEDBB
:10003000CDBF10E0A0E6B0E0E8ECF0E002C0059033
:100040000D92A036B107D9F720E0A0E6B0E001C0DC
:100050001D92A036B207E1F722D034C0D1CFE82FED
:10006000F0E03A97CF01880F991F880F991FE81B7E
:10007000F90B22AD81E090E002C0880F991F6A95CC
:10008000E2F7982F9095922392AF93AD982B93AF70
:1000900092AD982B92AF93AD892B83AF089505D085
:1000A00060E070E08BE0DBDFFFCF80B7826080BF75
:1000B00083B7826083BF86B7886686BF89B7816051
:0800C00089BF0895F894FFCFF9
:00000001FF
